{
  "transactions": [
    {
      "hash": "0x0e1d8560ac9205c4517bc098676546c556c08de5f28a05c0bf32f4117d29d2a4",
      "transactionType": "CALL",
      "contractName": null,
      "contractAddress": "0x0165878a594ca255338adfa4d48449f69242eb8f",
      "function": "createTable((uint8,uint16,bool,uint16,bool,bool,bool,bool),address,bool,address,bytes32,uint64,uint32)",
      "arguments": [
        "(7, 6700, true, 14000, true, false, true, false)",
        "0xf39Fd6e51aad88F6F4ce6aB8827279cffFb92266",
        "false",
        "0x0000000000000000000000000000000000000000",
        "0xd4bb89654db74673a187bd804519e65e3f71a52bc55f11da7601a13dcf505314",
        "0",
        "500000"
      ],
      "transaction": {
        "from": "0xf39fd6e51aad88f6f4ce6ab8827279cfffb92266",
        "to": "0x0165878a594ca255338adfa4d48449f69242eb8f",
        "value": "0x0",
        "input": "0xf248fca900000000000000000000000000000000000000000000000000000000000000070000000000000000000000000000000000000000000000000000000000001a2c000000000000000000000000000000000000000000000000000000000000000100000000000000000000000000000000000000000000000000000000000036b00000000000000000000000000000000000000000000000000000000000000001000000000000000000000000000000000000000000000000000000000000000000000000000000000000000000000000000000000000000000000000000000010000000000000000000000000000000000000000000000000000000000000000000000000000000000000000f39fd6e51aad88f6f4ce6ab8827279cfffb9226600000000000000000000000000000000000000000000000000000000000000000000000000000000000000000000000000000000000000000000000000000000d4bb89654db74673a187bd804519e65e3f71a52bc55f11da7601a13dcf5053140000000000000000000000000000000000000000000000000000000000000000000000000000000000000000000000000000000000000000000000000007a120",
        "nonce": "0x7",
        "chainId": "0x7a69"
      },
      "additionalContracts": [],
      "isFixedGasLimit": false
    },
    {
      "hash": "0xd4faa526b83218115db7bce53d967c90ed0147073afbc2267f26fdbc20c04752",
      "transactionType": "CALL",
      "contractName": null,
      "contractAddress": "0x0165878a594ca255338adfa4d48449f69242eb8f",
      "function": "createTable((uint8,uint16,bool,uint16,bool,bool,bool,bool),address,bool,address,bytes32,uint64,uint32)",
      "arguments": [
        "(7, 6700, true, 15000, true, false, true, false)",
        "0xf39Fd6e51aad88F6F4ce6aB8827279cffFb92266",
        "true",
        "0x0000000000000000000000000000000000000000",
        "0xd4bb89654db74673a187bd804519e65e3f71a52bc55f11da7601a13dcf505314",
        "0",
        "500000"
      ],
      "transaction": {
        "from": "0xf39fd6e51aad88f6f4ce6ab8827279cfffb92266",
        "to": "0x0165878a594ca255338adfa4d48449f69242eb8f",
        "value": "0x0",
        "input": "0xf248fca900000000000000000000000000000000000000000000000000000000000000070000000000000000000000000000000000000000000000000000000000001a2c00000000000000000000000000000000000000000000000000000000000000010000000000000000000000000000000000000000000000000000000000003a980000000000000000000000000000000000000000000000000000000000000001000000000000000000000000000000000000000000000000000000000000000000000000000000000000000000000000000000000000000000000000000000010000000000000000000000000000000000000000000000000000000000000000000000000000000000000000f39fd6e51aad88f6f4ce6ab8827279cfffb9226600000000000000000000000000000000000000000000000000000000000000010000000000000000000000000000000000000000000000000000000000000000d4bb89654db74673a187bd804519e65e3f71a52bc55f11da7601a13dcf5053140000000000000000000000000000000000000000000000000000000000000000000000000000000000000000000000000000000000000000000000000007a120",
        "nonce": "0x8",
        "chainId": "0x7a69"
      },
      "additionalContracts": [],
      "isFixedGasLimit": false
    }
  ],
  "receipts": [
    {
      "status": "0x1",
      "cumulativeGasUsed": "0x115aca",
      "logs": [
        {
          "address": "0x0165878a594ca255338adfa4d48449f69242eb8f",
          "topics": [
            "0xbc20dac13c4f58bd3c4597ad92ac146cd8edd02d82169590e66cee339c7d98d1"
          ],
          "data": "0x0000000000000000000000003b02ff1e626ed7a8fd6ec5299e2c54e1421b626b0000000000000000000000000000000000000000000000000000000000000000",
          "blockHash": "0x4c01655f9a65e0c7c81b25a4667fad9ebbe867300878c55122b7a8c8913d8d8b",
          "blockNumber": "0x3a8",
          "blockTimestamp": "0x6907e86d",
          "transactionHash": "0x0e1d8560ac9205c4517bc098676546c556c08de5f28a05c0bf32f4117d29d2a4",
          "transactionIndex": "0x0",
          "logIndex": "0x0",
          "removed": false
        }
      ],
      "logsBloom": "0x00000000000000010000000000000000000000001000000000000000000000000000000000000000000000000000000000000000000000000000000000000000001000000000000000000000000000000000000000000000000000000000000000000000000000000000000000000000000000000000000000000000000000040000000000000000000000000000000000000020000000000000000000000000000000000000000000000000000000000000000000000000000000000000000000000004000000000000000000000000000000000000000000000000000000000000000000000000000000000000000000000000000000000000000000000000",
      "type": "0x2",
      "transactionHash": "0x0e1d8560ac9205c4517bc098676546c556c08de5f28a05c0bf32f4117d29d2a4",
      "transactionIndex": "0x0",
      "blockHash": "0x4c01655f9a65e0c7c81b25a4667fad9ebbe867300878c55122b7a8c8913d8d8b",
      "blockNumber": "0x3a8",
      "gasUsed": "0x115aca",
      "effectiveGasPrice": "0x8",
      "blobGasPrice": "0x1",
      "from": "0xf39fd6e51aad88f6f4ce6ab8827279cfffb92266",
      "to": "0x0165878a594ca255338adfa4d48449f69242eb8f",
      "contractAddress": null
    },
    {
      "status": "0x1",
      "cumulativeGasUsed": "0x115ae0",
      "logs": [
        {
          "address": "0x0165878a594ca255338adfa4d48449f69242eb8f",
          "topics": [
            "0xbc20dac13c4f58bd3c4597ad92ac146cd8edd02d82169590e66cee339c7d98d1"
          ],
          "data": "0x000000000000000000000000ba12646cc07adbe43f8bd25d83fb628d29c8a7620000000000000000000000000000000000000000000000000000000000000001",
          "blockHash": "0xa4728eb06221a61dc20fb21882bae7617067c1a410dcb11f1f469edabe104036",
          "blockNumber": "0x3a9",
          "blockTimestamp": "0x6907e86e",
          "transactionHash": "0xd4faa526b83218115db7bce53d967c90ed0147073afbc2267f26fdbc20c04752",
          "transactionIndex": "0x0",
          "logIndex": "0x0",
          "removed": false
        }
      ],
      "logsBloom": "0x00000000000000010000000000000000000000001000000000000000000000000000000000000000000000000000000000000000000000000000000000000000001000000000000000000000000000000000000000000000000000000000000000000000000000000000000000000000000000000000000000000000000000040000000000000000000000000000000000000020000000000000000000000000000000000000000000000000000000000000000000000000000000000000000000000004000000000000000000000000000000000000000000000000000000000000000000000000000000000000000000000000000000000000000000000000",
      "type": "0x2",
      "transactionHash": "0xd4faa526b83218115db7bce53d967c90ed0147073afbc2267f26fdbc20c04752",
      "transactionIndex": "0x0",
      "blockHash": "0xa4728eb06221a61dc20fb21882bae7617067c1a410dcb11f1f469edabe104036",
      "blockNumber": "0x3a9",
      "gasUsed": "0x115ae0",
      "effectiveGasPrice": "0x8",
      "blobGasPrice": "0x1",
      "from": "0xf39fd6e51aad88f6f4ce6ab8827279cfffb92266",
      "to": "0x0165878a594ca255338adfa4d48449f69242eb8f",
      "contractAddress": null
    }
  ],
  "libraries": [],
  "pending": [],
  "returns": {},
  "timestamp": 1762125934481,
  "chain": 31337,
  "commit": "d164ae3"
}