{
  "transactions": [
    {
      "hash": "0x711dbc6a8ea1afac60700f8251e0ea4b5adf5a653d2630db30f54e77aad027e1",
      "transactionType": "CREATE",
      "contractName": "MockVRFCoordinator",
      "contractAddress": "0xe7f1725e7734ce288f8367e1bb143e90bb3f0512",
      "function": null,
      "arguments": null,
      "transaction": {
        "from": "0xf39fd6e51aad88f6f4ce6ab8827279cfffb92266",
        "value": "0x0",
        "input": "0x608060405234801561000f575f80fd5b506103ff8061001d5f395ff3fe608060405234801561000f575f80fd5b5060043610610034575f3560e01c80635d3b1d3014610038578063808974ff1461005d575b5f80fd5b61004b61004636600461026e565b610072565b60405190815260200160405180910390f35b61007061006b3660046102de565b6100f6565b005b5f8054818061008083610317565b90915550505f546040805191825267ffffffffffffffff8716602083015261ffff86168282015263ffffffff85811660608401528416608083015251339188917ff4cc1a1bc42b3f4d316d428b1ade25474ea7ea67e3de23e123ede604f7b630399181900360a00190a3505f5495945050505050565b6040805160018082528183019092525f91602080830190803683370190505060408051426020820152449181019190915260608101859052909150608001604051602081830303815290604052805190602001205f1c815f8151811061015e5761015e61033b565b6020026020010181815250505f826001600160a01b0316848360405160240161018892919061034f565b60408051601f198184030181529181526020820180516001600160e01b0316631fe543e360e01b179052516101bd919061039d565b5f604051808303815f865af19150503d805f81146101f6576040519150601f19603f3d011682016040523d82523d5f602084013e6101fb565b606091505b50509050806102505760405162461bcd60e51b815260206004820152601e60248201527f4661696c656420746f2066756c66696c6c2072616e646f6d20776f7264730000604482015260640160405180910390fd5b50505050565b803563ffffffff81168114610269575f80fd5b919050565b5f805f805f60a08688031215610282575f80fd5b85359450602086013567ffffffffffffffff811681146102a0575f80fd5b9350604086013561ffff811681146102b6575f80fd5b92506102c460608701610256565b91506102d260808701610256565b90509295509295909350565b5f80604083850312156102ef575f80fd5b8235915060208301356001600160a01b038116811461030c575f80fd5b809150509250929050565b5f6001820161033457634e487b7160e01b5f52601160045260245ffd5b5060010190565b634e487b7160e01b5f52603260045260245ffd5b5f604082018483526020604060208501528185518084526060860191506020870193505f5b8181101561039057845183529383019391830191600101610374565b5090979650505050505050565b5f82515f5b818110156103bc57602081860181015185830152016103a2565b505f92019182525091905056fea264697066735822122046b345aa075700ede77bb26b489e32fc8872e2e05f96318b6577a8d85d6a012764736f6c63430008180033",
        "nonce": "0x1",
        "chainId": "0x7a69"
      },
      "additionalContracts": [],
      "isFixedGasLimit": false
    },
    {
      "hash": "0xcc4c1be1b1e1d42a76141bc12c7c15cb180d14296720d448e11aaf428efdbb06",
      "transactionType": "CALL",
      "contractName": null,
      "contractAddress": "0x5fbdb2315678afecb367f032d93f642f64180aa3",
      "function": "createTable((uint8,uint16,bool,uint16,bool,bool,bool,bool),address,bool,address,bytes32,uint64,uint32)",
      "arguments": [
        "(7, 6700, true, 14000, true, false, true, false)",
        "0xf39Fd6e51aad88F6F4ce6aB8827279cffFb92266",
        "false",
        "0xe7f1725E7734CE288F8367e1Bb143E90bb3F0512",
        "0xd4bb89654db74673a187bd804519e65e3f71a52bc55f11da7601a13dcf505314",
        "0",
        "500000"
      ],
      "transaction": {
        "from": "0xf39fd6e51aad88f6f4ce6ab8827279cfffb92266",
        "to": "0x5fbdb2315678afecb367f032d93f642f64180aa3",
        "value": "0x0",
        "input": "0xf248fca900000000000000000000000000000000000000000000000000000000000000070000000000000000000000000000000000000000000000000000000000001a2c000000000000000000000000000000000000000000000000000000000000000100000000000000000000000000000000000000000000000000000000000036b00000000000000000000000000000000000000000000000000000000000000001000000000000000000000000000000000000000000000000000000000000000000000000000000000000000000000000000000000000000000000000000000010000000000000000000000000000000000000000000000000000000000000000000000000000000000000000f39fd6e51aad88f6f4ce6ab8827279cfffb922660000000000000000000000000000000000000000000000000000000000000000000000000000000000000000e7f1725e7734ce288f8367e1bb143e90bb3f0512d4bb89654db74673a187bd804519e65e3f71a52bc55f11da7601a13dcf5053140000000000000000000000000000000000000000000000000000000000000000000000000000000000000000000000000000000000000000000000000007a120",
        "nonce": "0x2",
        "chainId": "0x7a69"
      },
      "additionalContracts": [],
      "isFixedGasLimit": false
    },
    {
      "hash": "0xf7de09c5b7d573d6906ab4e95876a978dfa6369afed0420ba250ec7c344ccebf",
      "transactionType": "CALL",
      "contractName": null,
      "contractAddress": "0x5fbdb2315678afecb367f032d93f642f64180aa3",
      "function": "createTable((uint8,uint16,bool,uint16,bool,bool,bool,bool),address,bool,address,bytes32,uint64,uint32)",
      "arguments": [
        "(7, 6700, true, 15000, true, false, true, false)",
        "0xf39Fd6e51aad88F6F4ce6aB8827279cffFb92266",
        "true",
        "0xe7f1725E7734CE288F8367e1Bb143E90bb3F0512",
        "0xd4bb89654db74673a187bd804519e65e3f71a52bc55f11da7601a13dcf505314",
        "0",
        "500000"
      ],
      "transaction": {
        "from": "0xf39fd6e51aad88f6f4ce6ab8827279cfffb92266",
        "to": "0x5fbdb2315678afecb367f032d93f642f64180aa3",
        "value": "0x0",
        "input": "0xf248fca900000000000000000000000000000000000000000000000000000000000000070000000000000000000000000000000000000000000000000000000000001a2c00000000000000000000000000000000000000000000000000000000000000010000000000000000000000000000000000000000000000000000000000003a980000000000000000000000000000000000000000000000000000000000000001000000000000000000000000000000000000000000000000000000000000000000000000000000000000000000000000000000000000000000000000000000010000000000000000000000000000000000000000000000000000000000000000000000000000000000000000f39fd6e51aad88f6f4ce6ab8827279cfffb922660000000000000000000000000000000000000000000000000000000000000001000000000000000000000000e7f1725e7734ce288f8367e1bb143e90bb3f0512d4bb89654db74673a187bd804519e65e3f71a52bc55f11da7601a13dcf5053140000000000000000000000000000000000000000000000000000000000000000000000000000000000000000000000000000000000000000000000000007a120",
        "nonce": "0x3",
        "chainId": "0x7a69"
      },
      "additionalContracts": [],
      "isFixedGasLimit": false
    }
  ],
  "receipts": [
    {
      "status": "0x1",
      "cumulativeGasUsed": "0x43051",
      "logs": [],
      "logsBloom": "0x00000000000000000000000000000000000000000000000000000000000000000000000000000000000000000000000000000000000000000000000000000000000000000000000000000000000000000000000000000000000000000000000000000000000000000000000000000000000000000000000000000000000000000000000000000000000000000000000000000000000000000000000000000000000000000000000000000000000000000000000000000000000000000000000000000000000000000000000000000000000000000000000000000000000000000000000000000000000000000000000000000000000000000000000000000000",
      "type": "0x2",
      "transactionHash": "0x711dbc6a8ea1afac60700f8251e0ea4b5adf5a653d2630db30f54e77aad027e1",
      "transactionIndex": "0x0",
      "blockHash": "0xec86cd96834b6b428213247949eb9d17a6a8d3719a42121fcef1ff84d57be568",
      "blockNumber": "0x6",
      "gasUsed": "0x43051",
      "effectiveGasPrice": "0x1efe597d",
      "blobGasPrice": "0x1",
      "from": "0xf39fd6e51aad88f6f4ce6ab8827279cfffb92266",
      "to": null,
      "contractAddress": "0xe7f1725e7734ce288f8367e1bb143e90bb3f0512"
    },
    {
      "status": "0x1",
      "cumulativeGasUsed": "0x115bba",
      "logs": [
        {
          "address": "0x5fbdb2315678afecb367f032d93f642f64180aa3",
          "topics": [
            "0xbc20dac13c4f58bd3c4597ad92ac146cd8edd02d82169590e66cee339c7d98d1"
          ],
          "data": "0x000000000000000000000000a16e02e87b7454126e5e10d957a927a7f5b5d2be0000000000000000000000000000000000000000000000000000000000000000",
          "blockHash": "0x5e0993a9ef4cb2338cf9bd8fc58fad6c69727afacf4e850c47f98b9432b45b0c",
          "blockNumber": "0x7",
          "blockTimestamp": "0x6909050d",
          "transactionHash": "0xcc4c1be1b1e1d42a76141bc12c7c15cb180d14296720d448e11aaf428efdbb06",
          "transactionIndex": "0x0",
          "logIndex": "0x0",
          "removed": false
        }
      ],
      "logsBloom": "0x00000000000000010000000000000000000000001000000000000000000000000000000000000000000000000000000000000000000000000000000000000000000000000000000000000000000000000000000000000000000000000000000000000040000000000000000000000000000000000000000000000000000000000000000000000000000000000000000000000020000000000000000200000000000000000000000000000000000000000000000000000000000000000000000000000040000000000000000000000000000000000000000000000000000000000000000000000000000000000000000000000000000000000000000000000000",
      "type": "0x2",
      "transactionHash": "0xcc4c1be1b1e1d42a76141bc12c7c15cb180d14296720d448e11aaf428efdbb06",
      "transactionIndex": "0x0",
      "blockHash": "0x5e0993a9ef4cb2338cf9bd8fc58fad6c69727afacf4e850c47f98b9432b45b0c",
      "blockNumber": "0x7",
      "gasUsed": "0x115bba",
      "effectiveGasPrice": "0x1b30b4e1",
      "blobGasPrice": "0x1",
      "from": "0xf39fd6e51aad88f6f4ce6ab8827279cfffb92266",
      "to": "0x5fbdb2315678afecb367f032d93f642f64180aa3",
      "contractAddress": null
    },
    {
      "status": "0x1",
      "cumulativeGasUsed": "0x115bd0",
      "logs": [
        {
          "address": "0x5fbdb2315678afecb367f032d93f642f64180aa3",
          "topics": [
            "0xbc20dac13c4f58bd3c4597ad92ac146cd8edd02d82169590e66cee339c7d98d1"
          ],
          "data": "0x000000000000000000000000b7a5bd0345ef1cc5e66bf61bdec17d2461fbd9680000000000000000000000000000000000000000000000000000000000000001",
          "blockHash": "0xa2224c2e0f1c3029c00575ae49c85f65c9ea3cca1f6636947fc300806a489b4b",
          "blockNumber": "0x8",
          "blockTimestamp": "0x6909050e",
          "transactionHash": "0xf7de09c5b7d573d6906ab4e95876a978dfa6369afed0420ba250ec7c344ccebf",
          "transactionIndex": "0x0",
          "logIndex": "0x0",
          "removed": false
        }
      ],
      "logsBloom": "0x00000000000000010000000000000000000000001000000000000000000000000000000000000000000000000000000000000000000000000000000000000000000000000000000000000000000000000000000000000000000000000000000000000040000000000000000000000000000000000000000000000000000000000000000000000000000000000000000000000020000000000000000200000000000000000000000000000000000000000000000000000000000000000000000000000040000000000000000000000000000000000000000000000000000000000000000000000000000000000000000000000000000000000000000000000000",
      "type": "0x2",
      "transactionHash": "0xf7de09c5b7d573d6906ab4e95876a978dfa6369afed0420ba250ec7c344ccebf",
      "transactionIndex": "0x0",
      "blockHash": "0xa2224c2e0f1c3029c00575ae49c85f65c9ea3cca1f6636947fc300806a489b4b",
      "blockNumber": "0x8",
      "gasUsed": "0x115bd0",
      "effectiveGasPrice": "0x180c9afb",
      "blobGasPrice": "0x1",
      "from": "0xf39fd6e51aad88f6f4ce6ab8827279cfffb92266",
      "to": "0x5fbdb2315678afecb367f032d93f642f64180aa3",
      "contractAddress": null
    }
  ],
  "libraries": [],
  "pending": [],
  "returns": {},
  "timestamp": 1762198798224,
  "chain": 31337,
  "commit": "d164ae3"
}