{
  "transactions": [
    {
      "hash": "0xf10ecc98d3c343ca33ea2d22f475d3a8c6ee5e0abbf347aa1a46ae1c234c2c95",
      "transactionType": "CREATE",
      "contractName": "MockVRFCoordinator",
      "contractAddress": "0xc3e53f4d16ae77db1c982e75a937b9f60fe63690",
      "function": null,
      "arguments": null,
      "transaction": {
        "from": "0xf39fd6e51aad88f6f4ce6ab8827279cfffb92266",
        "value": "0x0",
        "input": "0x608060405234801561000f575f80fd5b506103ff8061001d5f395ff3fe608060405234801561000f575f80fd5b5060043610610034575f3560e01c80635d3b1d3014610038578063808974ff1461005d575b5f80fd5b61004b61004636600461026e565b610072565b60405190815260200160405180910390f35b61007061006b3660046102de565b6100f6565b005b5f8054818061008083610317565b90915550505f546040805191825267ffffffffffffffff8716602083015261ffff86168282015263ffffffff85811660608401528416608083015251339188917ff4cc1a1bc42b3f4d316d428b1ade25474ea7ea67e3de23e123ede604f7b630399181900360a00190a3505f5495945050505050565b6040805160018082528183019092525f91602080830190803683370190505060408051426020820152449181019190915260608101859052909150608001604051602081830303815290604052805190602001205f1c815f8151811061015e5761015e61033b565b6020026020010181815250505f826001600160a01b0316848360405160240161018892919061034f565b60408051601f198184030181529181526020820180516001600160e01b0316631fe543e360e01b179052516101bd919061039d565b5f604051808303815f865af19150503d805f81146101f6576040519150601f19603f3d011682016040523d82523d5f602084013e6101fb565b606091505b50509050806102505760405162461bcd60e51b815260206004820152601e60248201527f4661696c656420746f2066756c66696c6c2072616e646f6d20776f7264730000604482015260640160405180910390fd5b50505050565b803563ffffffff81168114610269575f80fd5b919050565b5f805f805f60a08688031215610282575f80fd5b85359450602086013567ffffffffffffffff811681146102a0575f80fd5b9350604086013561ffff811681146102b6575f80fd5b92506102c460608701610256565b91506102d260808701610256565b90509295509295909350565b5f80604083850312156102ef575f80fd5b8235915060208301356001600160a01b038116811461030c575f80fd5b809150509250929050565b5f6001820161033457634e487b7160e01b5f52601160045260245ffd5b5060010190565b634e487b7160e01b5f52603260045260245ffd5b5f604082018483526020604060208501528185518084526060860191506020870193505f5b8181101561039057845183529383019391830191600101610374565b5090979650505050505050565b5f82515f5b818110156103bc57602081860181015185830152016103a2565b505f92019182525091905056fea26469706673582212206ecf19854b0aaa1d6ec3226ca98486495f6ab132ed06495dc38af7f506f771a064736f6c63430008180033",
        "nonce": "0x1f",
        "chainId": "0x7a69"
      },
      "additionalContracts": [],
      "isFixedGasLimit": false
    },
    {
      "hash": "0x6dc94e7f2830b552648f5eb61a9d0117fb32d1d7b333000d1b6b4a386b309b93",
      "transactionType": "CALL",
      "contractName": null,
      "contractAddress": "0xe6e340d132b5f46d1e472debcd681b2abc16e57e",
      "function": "createTable((uint8,uint16,bool,uint16,bool,bool,bool,bool),address,address,bytes32,uint64,uint32)",
      "arguments": [
        "(7, 6700, true, 14000, true, false, true, false)",
        "0xf39Fd6e51aad88F6F4ce6aB8827279cffFb92266",
        "0xc3e53F4d16Ae77Db1c982e75a937B9f60FE63690",
        "0xd4bb89654db74673a187bd804519e65e3f71a52bc55f11da7601a13dcf505314",
        "0",
        "500000"
      ],
      "transaction": {
        "from": "0xf39fd6e51aad88f6f4ce6ab8827279cfffb92266",
        "to": "0xe6e340d132b5f46d1e472debcd681b2abc16e57e",
        "value": "0x0",
        "input": "0xff98df0700000000000000000000000000000000000000000000000000000000000000070000000000000000000000000000000000000000000000000000000000001a2c000000000000000000000000000000000000000000000000000000000000000100000000000000000000000000000000000000000000000000000000000036b00000000000000000000000000000000000000000000000000000000000000001000000000000000000000000000000000000000000000000000000000000000000000000000000000000000000000000000000000000000000000000000000010000000000000000000000000000000000000000000000000000000000000000000000000000000000000000f39fd6e51aad88f6f4ce6ab8827279cfffb92266000000000000000000000000c3e53f4d16ae77db1c982e75a937b9f60fe63690d4bb89654db74673a187bd804519e65e3f71a52bc55f11da7601a13dcf5053140000000000000000000000000000000000000000000000000000000000000000000000000000000000000000000000000000000000000000000000000007a120",
        "nonce": "0x20",
        "chainId": "0x7a69"
      },
      "additionalContracts": [],
      "isFixedGasLimit": false
    }
  ],
  "receipts": [
    {
      "status": "0x1",
      "cumulativeGasUsed": "0x4305d",
      "logs": [],
      "logsBloom": "0x00000000000000000000000000000000000000000000000000000000000000000000000000000000000000000000000000000000000000000000000000000000000000000000000000000000000000000000000000000000000000000000000000000000000000000000000000000000000000000000000000000000000000000000000000000000000000000000000000000000000000000000000000000000000000000000000000000000000000000000000000000000000000000000000000000000000000000000000000000000000000000000000000000000000000000000000000000000000000000000000000000000000000000000000000000000",
      "type": "0x2",
      "transactionHash": "0xf10ecc98d3c343ca33ea2d22f475d3a8c6ee5e0abbf347aa1a46ae1c234c2c95",
      "transactionIndex": "0x0",
      "blockHash": "0x8b67f84031c8edd3de29468667ea2b382549a437d0a3499f4b7237fffadf1d73",
      "blockNumber": "0x3d34",
      "gasUsed": "0x4305d",
      "effectiveGasPrice": "0x8",
      "blobGasPrice": "0x1",
      "from": "0xf39fd6e51aad88f6f4ce6ab8827279cfffb92266",
      "to": null,
      "contractAddress": "0xc3e53f4d16ae77db1c982e75a937b9f60fe63690"
    },
    {
      "status": "0x1",
      "cumulativeGasUsed": "0x1159f5",
      "logs": [
        {
          "address": "0xe6e340d132b5f46d1e472debcd681b2abc16e57e",
          "topics": [
            "0x85d8247bf36ce53123834da33f5a6c0fa9dc15741e86ef5e27f7803058836740"
          ],
          "data": "0x0000000000000000000000004f57f9239efcbf43e5920f579d03b3849c588396",
          "blockHash": "0x92a8b3775c6d50a668beede7080fc4f319cf7b15983f7ab3d1c8e7a8054ccbd8",
          "blockNumber": "0x3d35",
          "blockTimestamp": "0x690ad3f7",
          "transactionHash": "0x6dc94e7f2830b552648f5eb61a9d0117fb32d1d7b333000d1b6b4a386b309b93",
          "transactionIndex": "0x0",
          "logIndex": "0x0",
          "removed": false
        }
      ],
      "logsBloom": "0x00000000000000000000000000000000000000000000000000000000000000000000000000000000000000000000000000000000000000000000000000000000000000000000000080000000000000000000000000000000000000000000000000000000000000000000000000000000000000008000000000000000080000000000000000000000000000000000000000000000000000000000000000000000000000000000000000000000000000000001000000000000000000000000000000080000000000000000000000000000000000000000000000000200000000000000000000000000000000000000000000000000000000000000000000000000",
      "type": "0x2",
      "transactionHash": "0x6dc94e7f2830b552648f5eb61a9d0117fb32d1d7b333000d1b6b4a386b309b93",
      "transactionIndex": "0x0",
      "blockHash": "0x92a8b3775c6d50a668beede7080fc4f319cf7b15983f7ab3d1c8e7a8054ccbd8",
      "blockNumber": "0x3d35",
      "gasUsed": "0x1159f5",
      "effectiveGasPrice": "0x8",
      "blobGasPrice": "0x1",
      "from": "0xf39fd6e51aad88f6f4ce6ab8827279cfffb92266",
      "to": "0xe6e340d132b5f46d1e472debcd681b2abc16e57e",
      "contractAddress": null
    }
  ],
  "libraries": [],
  "pending": [],
  "returns": {},
  "timestamp": 1762317303133,
  "chain": 31337,
  "commit": "ca2701b"
}