{
  "transactions": [
    {
      "hash": "0x426c87748c300481c27f8e40d01ef1a1064d18fc4fc6f2423991bdb40c7cb86d",
      "transactionType": "CREATE",
      "contractName": "MockVRFCoordinator",
      "contractAddress": "0x99bba657f2bbc93c02d617f8ba121cb8fc104acf",
      "function": null,
      "arguments": null,
      "transaction": {
        "from": "0xf39fd6e51aad88f6f4ce6ab8827279cfffb92266",
        "value": "0x0",
        "input": "0x608060405234801561000f575f80fd5b506103ff8061001d5f395ff3fe608060405234801561000f575f80fd5b5060043610610034575f3560e01c80635d3b1d3014610038578063808974ff1461005d575b5f80fd5b61004b61004636600461026e565b610072565b60405190815260200160405180910390f35b61007061006b3660046102de565b6100f6565b005b5f8054818061008083610317565b90915550505f546040805191825267ffffffffffffffff8716602083015261ffff86168282015263ffffffff85811660608401528416608083015251339188917ff4cc1a1bc42b3f4d316d428b1ade25474ea7ea67e3de23e123ede604f7b630399181900360a00190a3505f5495945050505050565b6040805160018082528183019092525f91602080830190803683370190505060408051426020820152449181019190915260608101859052909150608001604051602081830303815290604052805190602001205f1c815f8151811061015e5761015e61033b565b6020026020010181815250505f826001600160a01b0316848360405160240161018892919061034f565b60408051601f198184030181529181526020820180516001600160e01b0316631fe543e360e01b179052516101bd919061039d565b5f604051808303815f865af19150503d805f81146101f6576040519150601f19603f3d011682016040523d82523d5f602084013e6101fb565b606091505b50509050806102505760405162461bcd60e51b815260206004820152601e60248201527f4661696c656420746f2066756c66696c6c2072616e646f6d20776f7264730000604482015260640160405180910390fd5b50505050565b803563ffffffff81168114610269575f80fd5b919050565b5f805f805f60a08688031215610282575f80fd5b85359450602086013567ffffffffffffffff811681146102a0575f80fd5b9350604086013561ffff811681146102b6575f80fd5b92506102c460608701610256565b91506102d260808701610256565b90509295509295909350565b5f80604083850312156102ef575f80fd5b8235915060208301356001600160a01b038116811461030c575f80fd5b809150509250929050565b5f6001820161033457634e487b7160e01b5f52601160045260245ffd5b5060010190565b634e487b7160e01b5f52603260045260245ffd5b5f604082018483526020604060208501528185518084526060860191506020870193505f5b8181101561039057845183529383019391830191600101610374565b5090979650505050505050565b5f82515f5b818110156103bc57602081860181015185830152016103a2565b505f92019182525091905056fea264697066735822122046b345aa075700ede77bb26b489e32fc8872e2e05f96318b6577a8d85d6a012764736f6c63430008180033",
        "nonce": "0x2a",
        "chainId": "0x7a69"
      },
      "additionalContracts": [],
      "isFixedGasLimit": false
    },
    {
      "hash": "0x87dff8c87415b96c0298658a1cff440af87b14b9000fe9f528e9b8b1ccbde8ea",
      "transactionType": "CALL",
      "contractName": null,
      "contractAddress": "0x4826533b4897376654bb4d4ad88b7fafd0c98528",
      "function": "createTable((uint8,uint16,bool,uint16,bool,bool,bool,bool),address,bool,address,bytes32,uint64,uint32)",
      "arguments": [
        "(7, 6700, true, 14000, true, false, true, false)",
        "0xf39Fd6e51aad88F6F4ce6aB8827279cffFb92266",
        "false",
        "0x99bbA657f2BbC93c02D617f8bA121cB8Fc104Acf",
        "0xd4bb89654db74673a187bd804519e65e3f71a52bc55f11da7601a13dcf505314",
        "0",
        "500000"
      ],
      "transaction": {
        "from": "0xf39fd6e51aad88f6f4ce6ab8827279cfffb92266",
        "to": "0x4826533b4897376654bb4d4ad88b7fafd0c98528",
        "value": "0x0",
        "input": "0xf248fca900000000000000000000000000000000000000000000000000000000000000070000000000000000000000000000000000000000000000000000000000001a2c000000000000000000000000000000000000000000000000000000000000000100000000000000000000000000000000000000000000000000000000000036b00000000000000000000000000000000000000000000000000000000000000001000000000000000000000000000000000000000000000000000000000000000000000000000000000000000000000000000000000000000000000000000000010000000000000000000000000000000000000000000000000000000000000000000000000000000000000000f39fd6e51aad88f6f4ce6ab8827279cfffb92266000000000000000000000000000000000000000000000000000000000000000000000000000000000000000099bba657f2bbc93c02d617f8ba121cb8fc104acfd4bb89654db74673a187bd804519e65e3f71a52bc55f11da7601a13dcf5053140000000000000000000000000000000000000000000000000000000000000000000000000000000000000000000000000000000000000000000000000007a120",
        "nonce": "0x2b",
        "chainId": "0x7a69"
      },
      "additionalContracts": [],
      "isFixedGasLimit": false
    },
    {
      "hash": "0xb53fc53e77d6d7c97180720dce34d8e019c68a37883f5e215f5a0882d82bc0b4",
      "transactionType": "CALL",
      "contractName": null,
      "contractAddress": "0x4826533b4897376654bb4d4ad88b7fafd0c98528",
      "function": "createTable((uint8,uint16,bool,uint16,bool,bool,bool,bool),address,bool,address,bytes32,uint64,uint32)",
      "arguments": [
        "(7, 6700, true, 15000, true, false, true, false)",
        "0xf39Fd6e51aad88F6F4ce6aB8827279cffFb92266",
        "true",
        "0x99bbA657f2BbC93c02D617f8bA121cB8Fc104Acf",
        "0xd4bb89654db74673a187bd804519e65e3f71a52bc55f11da7601a13dcf505314",
        "0",
        "500000"
      ],
      "transaction": {
        "from": "0xf39fd6e51aad88f6f4ce6ab8827279cfffb92266",
        "to": "0x4826533b4897376654bb4d4ad88b7fafd0c98528",
        "value": "0x0",
        "input": "0xf248fca900000000000000000000000000000000000000000000000000000000000000070000000000000000000000000000000000000000000000000000000000001a2c00000000000000000000000000000000000000000000000000000000000000010000000000000000000000000000000000000000000000000000000000003a980000000000000000000000000000000000000000000000000000000000000001000000000000000000000000000000000000000000000000000000000000000000000000000000000000000000000000000000000000000000000000000000010000000000000000000000000000000000000000000000000000000000000000000000000000000000000000f39fd6e51aad88f6f4ce6ab8827279cfffb92266000000000000000000000000000000000000000000000000000000000000000100000000000000000000000099bba657f2bbc93c02d617f8ba121cb8fc104acfd4bb89654db74673a187bd804519e65e3f71a52bc55f11da7601a13dcf5053140000000000000000000000000000000000000000000000000000000000000000000000000000000000000000000000000000000000000000000000000007a120",
        "nonce": "0x2c",
        "chainId": "0x7a69"
      },
      "additionalContracts": [],
      "isFixedGasLimit": false
    }
  ],
  "receipts": [
    {
      "status": "0x1",
      "cumulativeGasUsed": "0x43051",
      "logs": [],
      "logsBloom": "0x00000000000000000000000000000000000000000000000000000000000000000000000000000000000000000000000000000000000000000000000000000000000000000000000000000000000000000000000000000000000000000000000000000000000000000000000000000000000000000000000000000000000000000000000000000000000000000000000000000000000000000000000000000000000000000000000000000000000000000000000000000000000000000000000000000000000000000000000000000000000000000000000000000000000000000000000000000000000000000000000000000000000000000000000000000000",
      "type": "0x2",
      "transactionHash": "0x426c87748c300481c27f8e40d01ef1a1064d18fc4fc6f2423991bdb40c7cb86d",
      "transactionIndex": "0x0",
      "blockHash": "0x5b104237cf8f3d58d37ed41f6b69f3c93eb4489682bce0c3d1d3319d2600778d",
      "blockNumber": "0x1120",
      "gasUsed": "0x43051",
      "effectiveGasPrice": "0x8",
      "blobGasPrice": "0x1",
      "from": "0xf39fd6e51aad88f6f4ce6ab8827279cfffb92266",
      "to": null,
      "contractAddress": "0x99bba657f2bbc93c02d617f8ba121cb8fc104acf"
    },
    {
      "status": "0x1",
      "cumulativeGasUsed": "0x115bba",
      "logs": [
        {
          "address": "0x4826533b4897376654bb4d4ad88b7fafd0c98528",
          "topics": [
            "0xbc20dac13c4f58bd3c4597ad92ac146cd8edd02d82169590e66cee339c7d98d1"
          ],
          "data": "0x000000000000000000000000ca4211da53d1bbab819b03138302a21d6f6b76470000000000000000000000000000000000000000000000000000000000000000",
          "blockHash": "0x2957fd97763ecf6107cb6fa32f1c0f16130e7371b241bf354b0278585cdab281",
          "blockNumber": "0x1121",
          "blockTimestamp": "0x69091967",
          "transactionHash": "0x87dff8c87415b96c0298658a1cff440af87b14b9000fe9f528e9b8b1ccbde8ea",
          "transactionIndex": "0x0",
          "logIndex": "0x0",
          "removed": false
        }
      ],
      "logsBloom": "0x00000000000000010000000000000000000000001000000000000000000000000000000000000000000000000000000000000000000000000000000000000000400000000000000000000000000000000000000000000000000000000000000000000000000000000000000000000000000000000000000000000000000000000000000000000000000000000000000000000020000000000000000000000080000000000000000000000000000000000000000000000000000000000000000000000000000000000000000000000000000000000000000000000000000000000000000000000080000000000000000000000000000000000000000000000000",
      "type": "0x2",
      "transactionHash": "0x87dff8c87415b96c0298658a1cff440af87b14b9000fe9f528e9b8b1ccbde8ea",
      "transactionIndex": "0x0",
      "blockHash": "0x2957fd97763ecf6107cb6fa32f1c0f16130e7371b241bf354b0278585cdab281",
      "blockNumber": "0x1121",
      "gasUsed": "0x115bba",
      "effectiveGasPrice": "0x8",
      "blobGasPrice": "0x1",
      "from": "0xf39fd6e51aad88f6f4ce6ab8827279cfffb92266",
      "to": "0x4826533b4897376654bb4d4ad88b7fafd0c98528",
      "contractAddress": null
    },
    {
      "status": "0x1",
      "cumulativeGasUsed": "0x115bd0",
      "logs": [
        {
          "address": "0x4826533b4897376654bb4d4ad88b7fafd0c98528",
          "topics": [
            "0xbc20dac13c4f58bd3c4597ad92ac146cd8edd02d82169590e66cee339c7d98d1"
          ],
          "data": "0x000000000000000000000000e7402c51ae0bd667ad57a99991af6c2b686cd4f10000000000000000000000000000000000000000000000000000000000000001",
          "blockHash": "0x1be6a74d03b21c86873912836761e79247bb6e633b1c69c8f20b752b411f2b4e",
          "blockNumber": "0x1122",
          "blockTimestamp": "0x69091968",
          "transactionHash": "0xb53fc53e77d6d7c97180720dce34d8e019c68a37883f5e215f5a0882d82bc0b4",
          "transactionIndex": "0x0",
          "logIndex": "0x0",
          "removed": false
        }
      ],
      "logsBloom": "0x00000000000000010000000000000000000000001000000000000000000000000000000000000000000000000000000000000000000000000000000000000000400000000000000000000000000000000000000000000000000000000000000000000000000000000000000000000000000000000000000000000000000000000000000000000000000000000000000000000020000000000000000000000080000000000000000000000000000000000000000000000000000000000000000000000000000000000000000000000000000000000000000000000000000000000000000000000080000000000000000000000000000000000000000000000000",
      "type": "0x2",
      "transactionHash": "0xb53fc53e77d6d7c97180720dce34d8e019c68a37883f5e215f5a0882d82bc0b4",
      "transactionIndex": "0x0",
      "blockHash": "0x1be6a74d03b21c86873912836761e79247bb6e633b1c69c8f20b752b411f2b4e",
      "blockNumber": "0x1122",
      "gasUsed": "0x115bd0",
      "effectiveGasPrice": "0x8",
      "blobGasPrice": "0x1",
      "from": "0xf39fd6e51aad88f6f4ce6ab8827279cfffb92266",
      "to": "0x4826533b4897376654bb4d4ad88b7fafd0c98528",
      "contractAddress": null
    }
  ],
  "libraries": [],
  "pending": [],
  "returns": {},
  "timestamp": 1762204008803,
  "chain": 31337,
  "commit": "d164ae3"
}