{
  "transactions": [
    {
      "hash": "0x4b77ea4a446939f97a68061a64a9c25fe155d09d88a520b239d14aa0e3e04f88",
      "transactionType": "CREATE",
      "contractName": "MockVRFCoordinator",
      "contractAddress": "0xf5059a5d33d5853360d16c683c16e67980206f36",
      "function": null,
      "arguments": null,
      "transaction": {
        "from": "0xf39fd6e51aad88f6f4ce6ab8827279cfffb92266",
        "value": "0x0",
        "input": "0x608060405234801561000f575f80fd5b506103ff8061001d5f395ff3fe608060405234801561000f575f80fd5b5060043610610034575f3560e01c80635d3b1d3014610038578063808974ff1461005d575b5f80fd5b61004b61004636600461026e565b610072565b60405190815260200160405180910390f35b61007061006b3660046102de565b6100f6565b005b5f8054818061008083610317565b90915550505f546040805191825267ffffffffffffffff8716602083015261ffff86168282015263ffffffff85811660608401528416608083015251339188917ff4cc1a1bc42b3f4d316d428b1ade25474ea7ea67e3de23e123ede604f7b630399181900360a00190a3505f5495945050505050565b6040805160018082528183019092525f91602080830190803683370190505060408051426020820152449181019190915260608101859052909150608001604051602081830303815290604052805190602001205f1c815f8151811061015e5761015e61033b565b6020026020010181815250505f826001600160a01b0316848360405160240161018892919061034f565b60408051601f198184030181529181526020820180516001600160e01b0316631fe543e360e01b179052516101bd919061039d565b5f604051808303815f865af19150503d805f81146101f6576040519150601f19603f3d011682016040523d82523d5f602084013e6101fb565b606091505b50509050806102505760405162461bcd60e51b815260206004820152601e60248201527f4661696c656420746f2066756c66696c6c2072616e646f6d20776f7264730000604482015260640160405180910390fd5b50505050565b803563ffffffff81168114610269575f80fd5b919050565b5f805f805f60a08688031215610282575f80fd5b85359450602086013567ffffffffffffffff811681146102a0575f80fd5b9350604086013561ffff811681146102b6575f80fd5b92506102c460608701610256565b91506102d260808701610256565b90509295509295909350565b5f80604083850312156102ef575f80fd5b8235915060208301356001600160a01b038116811461030c575f80fd5b809150509250929050565b5f6001820161033457634e487b7160e01b5f52601160045260245ffd5b5060010190565b634e487b7160e01b5f52603260045260245ffd5b5f604082018483526020604060208501528185518084526060860191506020870193505f5b8181101561039057845183529383019391830191600101610374565b5090979650505050505050565b5f82515f5b818110156103bc57602081860181015185830152016103a2565b505f92019182525091905056fea26469706673582212206ecf19854b0aaa1d6ec3226ca98486495f6ab132ed06495dc38af7f506f771a064736f6c63430008180033",
        "nonce": "0x25",
        "chainId": "0x7a69"
      },
      "additionalContracts": [],
      "isFixedGasLimit": false
    },
    {
      "hash": "0x91507c73c322543d394d5de439a7b75713d72cd9cfba8b5fa960a718e76fab3c",
      "transactionType": "CALL",
      "contractName": null,
      "contractAddress": "0x851356ae760d987e095750cceb3bc6014560891c",
      "function": "createTable((uint8,uint16,bool,uint16,bool,bool,bool,bool),address,address,bytes32,uint64,uint32)",
      "arguments": [
        "(7, 6700, true, 14000, true, false, true, false)",
        "0xf39Fd6e51aad88F6F4ce6aB8827279cffFb92266",
        "0xf5059a5D33d5853360D16C683c16e67980206f36",
        "0xd4bb89654db74673a187bd804519e65e3f71a52bc55f11da7601a13dcf505314",
        "0",
        "500000"
      ],
      "transaction": {
        "from": "0xf39fd6e51aad88f6f4ce6ab8827279cfffb92266",
        "to": "0x851356ae760d987e095750cceb3bc6014560891c",
        "value": "0x0",
        "input": "0xff98df0700000000000000000000000000000000000000000000000000000000000000070000000000000000000000000000000000000000000000000000000000001a2c000000000000000000000000000000000000000000000000000000000000000100000000000000000000000000000000000000000000000000000000000036b00000000000000000000000000000000000000000000000000000000000000001000000000000000000000000000000000000000000000000000000000000000000000000000000000000000000000000000000000000000000000000000000010000000000000000000000000000000000000000000000000000000000000000000000000000000000000000f39fd6e51aad88f6f4ce6ab8827279cfffb92266000000000000000000000000f5059a5d33d5853360d16c683c16e67980206f36d4bb89654db74673a187bd804519e65e3f71a52bc55f11da7601a13dcf5053140000000000000000000000000000000000000000000000000000000000000000000000000000000000000000000000000000000000000000000000000007a120",
        "nonce": "0x26",
        "chainId": "0x7a69"
      },
      "additionalContracts": [],
      "isFixedGasLimit": false
    }
  ],
  "receipts": [
    {
      "status": "0x1",
      "cumulativeGasUsed": "0x4305d",
      "logs": [],
      "logsBloom": "0x00000000000000000000000000000000000000000000000000000000000000000000000000000000000000000000000000000000000000000000000000000000000000000000000000000000000000000000000000000000000000000000000000000000000000000000000000000000000000000000000000000000000000000000000000000000000000000000000000000000000000000000000000000000000000000000000000000000000000000000000000000000000000000000000000000000000000000000000000000000000000000000000000000000000000000000000000000000000000000000000000000000000000000000000000000000",
      "type": "0x2",
      "transactionHash": "0x4b77ea4a446939f97a68061a64a9c25fe155d09d88a520b239d14aa0e3e04f88",
      "transactionIndex": "0x0",
      "blockHash": "0x272b32b23d8971764510a02438b5dafdd0234798b8ed068e58ea9e1ad507c8e5",
      "blockNumber": "0x46b0",
      "gasUsed": "0x4305d",
      "effectiveGasPrice": "0x8",
      "blobGasPrice": "0x1",
      "from": "0xf39fd6e51aad88f6f4ce6ab8827279cfffb92266",
      "to": null,
      "contractAddress": "0xf5059a5d33d5853360d16c683c16e67980206f36"
    },
    {
      "status": "0x1",
      "cumulativeGasUsed": "0x1159f5",
      "logs": [
        {
          "address": "0x851356ae760d987e095750cceb3bc6014560891c",
          "topics": [
            "0x85d8247bf36ce53123834da33f5a6c0fa9dc15741e86ef5e27f7803058836740"
          ],
          "data": "0x000000000000000000000000b955b6c65ff69bfe07a557aa385055282b8a5ea3",
          "blockHash": "0xbc89219c9408f760e89027f6b3a2bba2beb9fae3b4a2975ef667aa97d64cc260",
          "blockNumber": "0x46b1",
          "blockTimestamp": "0x690add73",
          "transactionHash": "0x91507c73c322543d394d5de439a7b75713d72cd9cfba8b5fa960a718e76fab3c",
          "transactionIndex": "0x0",
          "logIndex": "0x0",
          "removed": false
        }
      ],
      "logsBloom": "0x00000000000000000000000000000000000400000000000000000000000000000000000000000000000000000000000000000000000000000000000000000000000000000000000000000000000000000000000000000010000000000000000000000000000000000000000000000020000000008000000000000000000000000000000000000000000000000000000000000000000000000000000000000000000000000000000000000000000000000001000000000000000000000000000000080000000000000000000000000000000000000000000000000000000000000000000000000000000000000000000000000000000000000000000000000000",
      "type": "0x2",
      "transactionHash": "0x91507c73c322543d394d5de439a7b75713d72cd9cfba8b5fa960a718e76fab3c",
      "transactionIndex": "0x0",
      "blockHash": "0xbc89219c9408f760e89027f6b3a2bba2beb9fae3b4a2975ef667aa97d64cc260",
      "blockNumber": "0x46b1",
      "gasUsed": "0x1159f5",
      "effectiveGasPrice": "0x8",
      "blobGasPrice": "0x1",
      "from": "0xf39fd6e51aad88f6f4ce6ab8827279cfffb92266",
      "to": "0x851356ae760d987e095750cceb3bc6014560891c",
      "contractAddress": null
    }
  ],
  "libraries": [],
  "pending": [],
  "returns": {},
  "timestamp": 1762319731135,
  "chain": 31337,
  "commit": "ca2701b"
}